:100000003BC063C061C060C05FC05EC05DC05CC01B
:100010005BC05AC059C077C057C056C055C054C005
:1000200053C052C051C050C04FC04EC04DC04CC054
:100030004BC04AC0FEC2FFC200C301C302C303C318
:1000400004C305C30028D8788850B0292E0607D3EA
:1000500091030C4400000A005C6C4E2D3B73F3FFCF
:10006000000700181D1CC700B0876BF8B610EA0A1D
:10007000001141005988310B11241FBECFEFD4E08D
:10008000DEBFCDBFA89584B78093AD0114BE88E1D3
:100090000FB6F89480936000109260000FBE11E0DC
:1000A000A0E0B1E0EEEDF4E102C005900D92A030C9
:1000B000B107D9F711E0A0E0B1E001C01D92AD3A5F
:1000C000B107E1F7C7D709CA9BCF78941F920F9267
:1000D0000FB60F9211248F9381E08093AC01809131
:1000E000B20080937C018F910F900FBE0F901F90F4
:1000F00018958250815029F0000000000000000097
:10010000F9CF000008951F920F920FB60F9211249D
:10011000BF92CF92DF92EF92FF920F931F932F9394
:100120003F934F935F936F937F938F939F93AF937F
:10013000BF93CF93DF93EF93FF9390918800905CF0
:10014000809184008917E0F3909184008091880069
:100150009A54981B9770E0EBF0E0E90FF11D0994B9
:1001600000000000000000000000000000001091EE
:10017000840080918800181B80917401C82FD0E002
:10018000CA56DE4F9881F980DA80BB808C810D8160
:10019000EE80CF8089B996B98885813049F088236F
:1001A00041F1823021F400000000000001C0A1DF15
:1001B000000009B9F6B88985813049F08823C9F073
:1001C000823021F400000000000001C092DF000036
:1001D000E9B8D6B88A85813049F0882351F0823059
:1001E00021F400000000000001C083DF0000C9B856
:1001F000B6B880917C017894E0917401882361F411
:1002000080917C01882341F080917C018150809312
:100210007C0102C02196EF5F8885882311F0E330CE
:10022000C8F38E2F8F5FE82FF0E0EE0FFF1FEE5523
:10023000FE4F0190F081E02D309711F0843040F0B6
:1002400080916F008D7F80936F001092810006C0B7
:10025000F0938900E0938800809374018091760187
:10026000181710F41093760180917701811710F41C
:10027000109377019091840080910601891720F4F2
:100280008091840080930601FF91EF91DF91CF91DF
:10029000BF91AF919F918F917F916F915F914F919E
:1002A0003F912F911F910F91FF90EF90DF90CF9092
:1002B000BF900F900FBE0F901F901895EF92FF9276
:1002C0000F931F93CF93DF93282F80916F0081FDB1
:1002D0001CC1222301F5409170014F70406C842FA6
:1002E000817080939601842F827080939701842F70
:1002F000847080939801842F887080939901109264
:100300009A0110929B0180915A0180937201109280
:1003100073011CE21CC0409170014073406C10914D
:10032000710113701C62842F807180939601842F59
:100330008072809397011092980110929901812FF9
:10034000817080939A01812F827080939B0110921B
:100350009C0110929D0152EAE52E51E0F52EA0E697
:10036000B1E0F701222329F018968D919C911997FD
:1003700003C08D919C91119780539A4F33E0880F61
:10038000991F3A95E1F781939193129681E0EA3AA9
:10039000F80741F7BF0164517040EF012897DB0176
:1003A00080E0082F0F5F502F88819981252F30E042
:1003B000F901EE0FFF1FEE55FE4F0190F081E02D89
:1003C000E817F90720F00097D1F43097C1F0F983CE
:1003D000E883F901EE0FFF1FEE55FE4F91838083F6
:1003E0009C91F901EA56FE4F80818C93908314967C
:1003F0009C911497848114968C93149794835F5FD7
:10040000543090F222961196802F033051F6E6E98F
:10041000F1E0DF011C9612962D913C9113978D917E
:100420009C911197281B390B83E0369527958A9567
:10043000E1F72115310561F481819081892B818358
:1004400085819481892B858311961C921E9205C00B
:100450002531310510F0108601C0208712963196A3
:1004600091E0A83AB907B9F61092A10131E0E7018D
:1004700088819981892B01F5232FE22FF0E0DF019C
:10048000AA0FBB1FAE55BE4F8D919C91119700973F
:1004900081F0E70199838883EA56FE4F8081EB0162
:1004A000888384818C83808588871D921C92108626
:1004B00003C02F5F243008F33F5FE2E0F0E0EE0E70
:1004C000FF1E6F5F7F4F343091F6109274011092CF
:1004D0007501109281001092850010928400809125
:1004E000A2019091A301909389008093880082E0FB
:1004F00086BB80916F00826080936F0081E0809363
:1005000081008BB1182B1BB948B9CDB7DEB7E6E037
:10051000ABC7982F2A9B27C02A98000080E009C00B
:100520008F5F8F3F31F480918701886080938701CE
:1005300002C01A99F5CF000080E009C08F5F8F3F9D
:1005400031F4809187018860809387010CC01C99E9
:10055000F5CF09C08F5F8F3F39F4809187018860A4
:100560008093870103C080E04B99F4CF0DB407FC62
:100570008EB59EBD0DB406FCFCCF01C000000DB4CD
:1005800007FEFCCF8EB508952A9A00001A9BFDCF76
:100590000895882329F05F985E9A10927F0108954C
:1005A0005E985F9A81E080937F01089580917F013A
:1005B000F0DF809188018F3F19F08F5F8093880171
:1005C00080918A0190918B01A0918C01B0918D0155
:1005D0000196A11DB11D80938A0190938B01A09378
:1005E0008C01B0938D0180917B0181115C980895FD
:1005F000CF93DF933091710120917001AAE3B1E0B4
:10060000C0E6D1E040E08C91882311F511968D91E0
:100610009C91129792FF02C0986F01C093709983CA
:100620008883E42FF0E0E830F10590F4E65EFF4FB8
:10063000099421600DC022600BC0246009C02860AD
:1006400007C0206105C0206203C0316001C0326074
:100650004F5F149622964830B1F630937101209383
:100660007001DF91CF910895CF93DF932091920194
:1006700030919301809182018F3F19F08F5F8093B9
:10068000820180918201823031F48FEF2F3F380751
:1006900011F02F5F3F4F809183018F3F19F08F5FE3
:1006A0008093830180918301823031F48FEF2F3F5B
:1006B000380711F02F5F3F4F309393012093920141
:1006C000AAE3B1E0C0E6D1E040E08C918823F1F4E8
:1006D00013965C911397E42FE695E695F0E0E658C3
:1006E000FE4F208530E0852F90E00196821793071A
:1006F0006CF45F3F59F011968D919C91129792FF87
:1007000002C0986F01C09370998388834F5F1496DD
:1007100022964830D1F6DF91CF9108950F931F9321
:10072000CF93DF93EC014C818D81582F5F7073E084
:10073000062F10E0A72FB0E0842F877090E0382FAD
:100740002227FE01EA0FFB1F8081280F311D32FD99
:10075000386FA00FB11FAA0FBB1FA05ABE4F2D9319
:100760003C93772339F063E0569547956A95E1F716
:100770007150E0CFDF91CF911F910F91089580913B
:1007800037019091380101978E5F9F4F60F48091FF
:100790003901853040F090E08D3508F091E081E03E
:1007A0009827892F089580E090E0089589B1829577
:1007B00086958770809581700895809178019091D9
:1007C000790120910501821B8B300CF44BC0809184
:1007D000780190917901382F8093050120910401CF
:1007E000822F90E08F709070892BE9F480918701BF
:1007F000882351F1482F50E0205F2F77822F829578
:100800008F70BA0102C0759567958A95E2F760FF0F
:10081000F3CF822F8695869586952160822B8093D3
:1008200004015C9A11C0822F81508093040190E0F2
:1008300080FF02C05C9A01C05C988F709070892B19
:1008400019F4325E309305018091040190E08F70BD
:100850009070892B39F480918701882319F481E005
:1008600080937B0180917B01882339F080918701FF
:10087000882319F010927B015C9808958093B3004F
:1008800082E087BB089580917C019091B200981B13
:100890009093B20090917C0180919501891714F496
:1008A0009093950180919401981714F4909394017A
:1008B0007DDF882331F08FE78093940180E8809377
:1008C000950110927C01089580917201882361F155
:1008D000815080937201882339F581E0EFDC3091FB
:1008E000710120917001EAE4F1E094E080818823B5
:1008F00099F0953061F0963018F4943069F405C0A1
:10090000963039F0973041F406C02F7E05C02F7D18
:1009100003C03E7F01C03D7F9F5F3496983031F722
:1009200030937101209370010895809173018F5F5E
:10093000809373018A3100F180E0C0DC90917001F6
:10094000EAE3F1E020E08081882381F0213049F062
:10095000213028F0223039F0233041F406C09E7F48
:1009600005C09D7F03C09B7F01C0977F2F5F34969A
:10097000243049F790937001089585E069E069D4C7
:1009800084E060E166D486E063E063D48BE16BEFE2
:1009900060D48091870182608093870180E4809396
:1009A0003901089580917F01F4DD809180018F5F8E
:1009B00080938001873010F010928001E0918001D7
:1009C000F0E0EC5BFF4FE491E09381018CE06E2F4F
:1009D00040D40895882309F1662329F087FD8FEF1D
:1009E00018160CF481E0682F772767FD70958091C9
:1009F0008101992787FD9095680F791F8FEF6038E7
:100A0000780714F460E87FEF6038710514F06FE741
:100A100070E0609381018CE01CD4089584E321D4BC
:100A2000881F8827881F0895289A84E33ED4089554
:100A3000CF93DF9380917E0190E0EC012396C43C3C
:100A4000D10518F0EC01C15CD0408AE06C2F01D4D4
:100A5000EBDFC0937E01DF91CF910895A6E0B0E077
:100A6000E3E3F5E0E9C4E8988BE31FD42091AB0100
:100A70008091AA01281739F1822F90E0FC01EE0F36
:100A8000FF1FE80FF91FEE0FFF1FDF01A95FBE4F29
:100A900015968C9115978E8314968C9114978D834F
:100AA00013968C9113978C83E75FFE4F80818B8325
:100AB00011968C9111978A838C9189832F5F27706F
:100AC0002093AB0123C08E818F7080618E838091D3
:100AD00089018D8320918A0130918B0140918C0195
:100AE00050918D01CA01AA27BB270097A105B10526
:100AF00029F08FEF9FEF9C838B8302C03C832B8375
:100B000080919201909193019A83898380915C01F5
:100B1000882311F083E306C0CE01019666E0D6D3A8
:100B2000289885E3C2D32696E2E0A2C4A0E6B1E00D
:100B3000EBE3F1E08D919D9191838083349681E088
:100B4000A037B807B9F78AE391E063E070E040E2CC
:100B500050E0A9D480918701816080938701089536
:100B6000A8E0B0E0E5EBF5E066C4CE01019668E0F0
:100B7000C4D3882309F49CC0888587FF99C09E81CF
:100B800097FF09C080917D01873061F081E08093FB
:100B9000840187E005C080917D01873018F086E0F0
:100BA00080937D011E8112951F7017701530A8F576
:100BB000412F50E020E030E080915D01882311F466
:100BC00021E030E0CA018270907028173907D1F413
:100BD000CE01019640FD0AC060E0A0DD10928201C6
:100BE000809170018F60809370010CC064E096DD8D
:100BF000109283018091700180638093700183E083
:100C000080937101143089F59091730180915B019B
:100C1000891758F580E052DB28C01530F9F4892F88
:100C20008C7019F52B813C8123303105F0F08D81DA
:100C30008130D9F490FF19C091FF05C069817A8194
:100C4000C90148D403C0C9016A8136D487E391E061
:100C500060E070E047E250E016D407C0173029F496
:100C60008C819D81019709F461DF88858F7790E001
:100C700005971CF480917F018CDC80918E0190910E
:100C80008F01A0919001B09191010196A11DB11D1C
:100C900080938E0190938F01A0939001B093910166
:100CA0001092880180917B0181115C9A81E001C0E2
:100CB00080E02896E3E0DBC3A5E0B0E0E1E6F6E003
:100CC000BBC3CE01019665E018D3882359F18D810D
:100CD00087FF28C089819A819093380180933701DA
:100CE0008B818093390180915B018F3F19F48FE0F4
:100CF00080935B0180915A018F3F51F48AE0809389
:100D00005A0187E391E060E070E047E250E006C0FE
:100D100087E391E060E070E043E050E0C4D31092DC
:100D20007A01FFCF80E02596E2E0A2C31F93182F3F
:100D300080917A01882351F0153029F4BDDF10C06D
:100D40008FE382D211501123D9F709C0183029F44A
:100D500007DF06C08FE378D211501123D9F780E066
:100D60001F910895282F4A9B05C0809187018064B8
:100D70008093870180917E01682F70E08091390116
:100D800090E0880F991F019603C0680F791F2150CA
:100D90002223D9F702C0645C7040643C7105D8F727
:100DA00060937E018AE06ED23FDE08950F931F9319
:100DB000CF93DF9310910301123009F451C0133027
:100DC00030F4112371F0113009F03FC126C0143006
:100DD00009F420C1143008F497C0153009F035C16A
:100DE0001EC1E4DC882319F4CADC882329F4C5DD9C
:100DF00081E080937A0105C086E066E02AD21092F5
:100E00007A0145D215DE109202011092010181E0B3
:100E10008093880180930301FAC080910101909131
:100E200002018536910560F4F9DD882349F44A9979
:100E300007C01CD2803121F48091AC01882349F095
:100E4000109202011092010182E08093030185E873
:100E5000DFC010D2EDDD80910101909102014EC002
:100E60004A9937C08DEB55DB982F8077803199F107
:100E70008091AC01882349F1192F1F7019F10ED20E
:100E800082E3EFD160E0A6DD81E06CDF812F4EDFF1
:100E9000882309F4D8C0F7DC80917D01873010F4F5
:100EA0008FE401C08CEAEADC10927D01109284018B
:100EB00083E080930301109202011092010182E00D
:100EC00087BBC1C082E04EDFBEC0D4D18AE3EDD182
:100ED000ABDD17BBBAC08091010190910201843C47
:100EE000910560F0C7D15EDDA3DD10920201109282
:100EF000010181E08093030182E46CC0019690932C
:100F000002018093010167C080918801853100F161
:100F10008091AC018823E1F4ADD187E0809380011A
:100F200041DD83E01FDF109202011092010181E098
:100F30008093880182E08093030185E89FDC8091A3
:100F400089018F3F09F481C08F5F809389017DC043
:100F50008091AC01882309F445C01092AC0182EF66
:100F6000D8DA182F8DE3D5DA082FC12FD0E0C0775B
:100F7000D070C031D10509F468C0209709F07AD14A
:100F80001F7061F1CD2B51F580918801843018F0EC
:100F9000802F60E002C0802F61E01CDD80917D0128
:100FA000873010F481E0DEDE812FC0DE882309F473
:100FB0004CC069DC80917D01873040F068D184E0CD
:100FC0008093030110927D0181E104C08F5F8093C3
:100FD0007D018FE453DC82E087BB37C08AE365D1B3
:100FE00023DD33C082E087BB45D1E0DA80917D010B
:100FF000873040F081E542DC4AD130DD85E08093E6
:10100000030123C08F5F80937D0181E0ABDE82E42A
:1010100035DC1BC08AE432DC21DD85E012C0109291
:101020007D018FE42BDC3AD180918401882321F06B
:10103000FBDC1092840102C081E094DEE09AE89A21
:1010400083E0809303011092AC01DF91CF911F9157
:101050000F910895F89410926100109264008091AD
:10106000AD01482F50E0BA0161707070EEEAF1E016
:1010700020E030E0A2E0B0E06115710511F01082CF
:101080000EC0CD01022E02C0880F991F0A94E2F70C
:1010900084239523892B19F080818F5F80832F5FB4
:1010A0003F4F31962330310539F795E095B98DE200
:1010B00084B987ED85B98FE387B980EC88B983ED72
:1010C0008AB98CEA8BB95C9A14BC95BD82EC87BD59
:1010D00010926E00109280001092810088ED9EE4C4
:1010E00090938B0080938A0032E03093B00086E0CA
:1010F0008093B10082E48093B3001092B20010920A
:1011000070002DE088E190E00FB6F894A8958093E8
:1011100060000FBE20936000309369001DBA87E322
:1011200091E060E070E047E250E0ADD18FEF42D156
:1011300002D1882329F480918701806880938701F8
:1011400085E06091370185D0609137017091380159
:10115000672F772784E07DD083B7817F83BF48DA0C
:1011600029E088E190E00FB6F894A895809360009C
:101170000FBE209360005C988FEF80937601E09A19
:10118000E89A82E087BB1092AC01789414E002E008
:10119000FBD97894B99903C08091AC01811106DE26
:1011A000AA9B1AC015BB88B5885F88BD80910001D5
:1011B0008F5F80930001853118F01092000154DA9E
:1011C00083DBB3DBB29B08C0809186018F3F21F0A7
:1011D0008F5F8093860116BBA99B34C087B58D5362
:1011E00087BD05BB8091780190917901019690931C
:1011F0007901809378018091780190917901892B10
:1012000029F4809187018E7F80938701D6DACEDA28
:101210008823C1F010928A0110928B0110928C01E8
:1012200010928D01109293011092920110928901F7
:101230001092860110928E0110928F0110929001EF
:1012400010929101A895A4CF806863D98DE361D9EC
:1012500008951F93162F8F775CD9812F5AD91F912C
:101260000895806C56D98DE354D908958DE351D9F2
:101270008077089586E34DD98077882311F0F6DFD3
:10128000FCCF0895E6DF807709F0F4DF089583E26C
:10129000DBDF682F606283E2F5DF089583E2D4DF4D
:1012A000682F6F7D83E2EEDF089533D908950F93A1
:1012B0001F93082F8EE72DD910E0802F2AD91F5FAA
:1012C0001830D9F761D91F910F9108950F931F938B
:1012D000CF93DF93EC01162F8FE71BD900E004C0FA
:1012E000899117D9082F11501123D1F74DD9802F8B
:1012F000DF91CF911F910F9108951F93CF93DF93AB
:10130000EC01162F8FEF05D9212F30E090E08F7080
:1013100090702817390739F037D980E008C08DE37D
:10132000F8D8899311501123D1F72ED981E0DF919C
:10133000CF911F9108951F93CF93DF9388EE93E091
:1013400028EC30E0F9013197F1F70197D9F780ECFB
:10135000E0D8CBE4D0E011E080E0DBD8FE012196BC
:10136000E4918E1310E080E0C537D807A8F30CD9BC
:101370008CEECFD880E0CDD8FE012196E4918E137B
:1013800010E080E0C837D807A8F3FED8812FDF919E
:10139000CF911F910895F8D880E58CBD089580E322
:1013A00084DF01C000001C9BFDCF01C000001C9920
:1013B000FDCF08950F931F93CF93DF93082F2D9A9E
:1013C0002B982A981AE6812F8A95F1F7E4DF1A956F
:1013D000F1F7E5DFD9D880E49CD8CBE4D0E0FE017A
:1013E0002196E4918E2F95D880E0C537D807B8F3C1
:1013F000CBD88CE68ED8FE012196E4918E2F89D829
:1014000080E0C837D807B8F3BFD8802F50DFDF910E
:10141000CF911F910F9108952F923F924F925F921B
:101420006F927F928F929F92AF92BF92CF92DF92F4
:10143000EF92FF920F931F93CF93DF93CDB7DEB759
:10144000CA1BDB0B0FB6F894DEBF0FBECDBF0994ED
:101450002A88398848885F846E847D848C849B8444
:10146000AA84B984C884DF80EE80FD800C811B8152
:10147000AA81B981CE0FD11D0FB6F894DEBF0FBE81
:10148000CDBFED010895DC01CB01FC01F999FECF40
:1014900006C0F2BDE1BDF89A319600B40D924150FC
:1014A0005040B8F70895DC01CB0102C02D9105D062
:1014B00041505040D8F70895262FF999FECF1FBA12
:1014C00092BD81BD20BD0FB6F894FA9AF99A0FBE6D
:0E14D00001960895F1DF272FF0CFF894FFCF9B
:00000001FF
