:1000000043C06BC069C068C067C066C065C064C0DB
:1000100063C062C061C076C05FC05EC05DC05CC0CE
:100020005BC05AC059C058C057C056C055C054C014
:1000300053C052C025C326C327C328C329C32AC31C
:100040002BC32CC383C484C485C486C487C488C41A
:1000500089C48AC40028D8788850B0292E0607D3CE
:1000600091030C4400000A005C6C4E2D3B73F3FFBF
:10007000000700181D1CC700B0876BF8B610EA0A0D
:10008000001141005988310B11241FBECFEFD4E07D
:10009000DEBFCDBFA89584B78093C90114BE88E1A7
:1000A0000FB6F89480936000109260000FBE11E0CC
:1000B000A0E0B1E0E6E6F5E102C005900D92A030C7
:1000C000B107D9F711E0A0E0B1E001C01D92A93C51
:1000D000B107E1F71FD845CA93CF8F938091B20043
:1000E00080939701789481E08093C8018F9118954F
:1000F0008250815029F00000000000000000F9CF7C
:10010000000008951F920F920FB60F921124BF9214
:10011000CF92DF92EF92FF920F931F932F933F9313
:100120004F935F936F937F938F939F93AF93BF93FF
:10013000CF93DF93EF93FF9390918800995B809129
:100140008400891BE2F39091840080918800995487
:10015000981B892F887F41F4E1EBF0E0E90FF11D56
:1001600009940000000000000000000000000000F2
:10017000B090840080918F01C82FD0E0CE54DE4F24
:1001800098810981EA80CB808C811D81FE80DF808F
:1001900089B996B98885813049F0882341F1823048
:1001A00021F400000000000001C0A2DF000019B926
:1001B00006B98985813049F08823C9F0823021F45D
:1001C00000000000000001C093DF0000F9B8E6B8AD
:1001D0008A85813049F0882351F0823021F4000073
:1001E0000000000001C084DF0000D9B8C6B82CB3FD
:1001F00080916F008D7F80936F007894809188004C
:100200009B2D981BE0918F0102C02196EF5F88859E
:10021000882311F0E330C8F38E2F8F5FE82FF0E0D2
:10022000EE0FFF1FE254FE4F0190F081E02D30975A
:1002300011F0843018F0109281000BC0F093890007
:10024000E093880080938F0180916F00826080939B
:100250006F0080919101981710F490939101809113
:100260009201891710F49093920120FF05C08091AC
:100270009701815080939701FF91EF91DF91CF918A
:10028000BF91AF919F918F917F916F915F914F91AE
:100290003F912F911F910F91FF90EF90DF90CF90A2
:1002A000BF900F900FBE0F901F901895EF92FF9286
:1002B0000F931F93CF93DF93382F80916F0081FDB1
:1002C00048C1332379F51092860120918401822F51
:1002D00090E08F709070892B09F43BC1522F5F70B2
:1002E000506C852F81708093B201852F827080932E
:1002F000B301852F84708093B401852F887080931B
:10030000B5011092B6011092B701109287011092B8
:1003100088011092890110928A01207F2093840124
:100320001CE235C020918401822F807341F48091BA
:10033000850190E083709070892B09F40AC1522FD7
:100340005073506C1091850113701C62852F807161
:100350008093B201852F80728093B3011092B40113
:100360001092B501812F81708093B601812F827028
:100370008093B70110928B0110928C0110928D0125
:1003800010928E012F7C209384011092850110928F
:10039000B8011092B9014EEBE42E41E0F42EA4E72F
:1003A000B1E0F701332329F018968D919C911997AC
:1003B00003C08D919C91119723E0880F991F2A9576
:1003C000E1F78459914D81939193129681E0E63C37
:1003D000F80741F7BF0164517040EF012897DB0136
:1003E00080E0082F0F5F402F88819981242F30E013
:1003F000F901EE0FFF1FE254FE4F0190F081E02D56
:10040000E817F90720F00097D1F43097C1F0F9838D
:10041000E883F901EE0FFF1FE254FE4F91838083C2
:100420009C91F901EE54FE4F80818C939083149639
:100430009C911497848114968C93149794834F5FA6
:10044000443090F222961196802F033051F680911D
:10045000B101C82FD0E0E2EBF1E0DF011C9612966B
:100460002D913C9113978D919C911197281B390BDD
:1004700003E0369527950A95E1F72115310561F4DA
:1004800081819081892B818385819481892B8583CA
:1004900011961C921E9205C0C217D30710F4108645
:1004A00001C020871296319691E0A43CB907B9F6B5
:1004B0001092BD0131E0E70188819981892B01F516
:1004C000232FE22FF0E0DF01AA0FBB1FA254BE4F83
:1004D0008D919C911197009781F0E7019983888312
:1004E000EE54FE4F8081EB01888384818C8380856C
:1004F00088871D921C92108603C02F5F243008F35A
:100500003F5FE2E0F0E0EE0EFF1E6F5F7F4F3430A2
:1005100091F610928F01109290011092810010922A
:100520008500109284008091BE019091BF0190934C
:1005300089008093880082E086BB80916F00826092
:1005400080936F0081E0809381008BB1182B1BB9E1
:1005500058B9DF91CF911F910F91FF90EF900895BF
:10056000982F2A9B27C02A98000080E009C08F5F3F
:100570008F3F31F48091A20188608093A20102C074
:100580001A99F5CF000080E009C08F5F8F3F31F4EA
:100590008091A20188608093A2010CC01C99F5CFC4
:1005A00009C08F5F8F3F39F48091A20188608093EA
:1005B000A20103C080E04B99F4CF0DB407FC8EB5C7
:1005C0009EBD0DB406FCFCCF01C000000DB407FEBB
:1005D000FCCF8EB508952A9A00001A9BFDCF08958E
:1005E000882329F05F985E9A10929A0108955E9888
:1005F0005F9A81E080939A01089580919A01F0DFDB
:100600008091A3018F3F19F08F5F8093A3018091A8
:10061000A5019091A601A091A701B091A801019612
:10062000A11DB11D8093A5019093A601A093A701E0
:10063000B093A8018091960181115C980895CF93A1
:10064000DF933091850120918401A7E4B1E0C4E7F4
:10065000D1E040E08C91882311F511968D919C9109
:10066000129792FF02C0986F01C09370998388839C
:10067000E42FF0E0E830F10590F4E65EFF4F0994D6
:1006800021600DC022600BC0246009C0286007C033
:10069000206105C0206203C0316001C032604F5F3D
:1006A000149622964830B1F6309385012093840148
:1006B000DF91CF910895CF93DF932091AD013091D9
:1006C000AE0180919D018F3F19F08F5F80939D0156
:1006D00080919D01823031F48FEF2F3F380711F068
:1006E0002F5F3F4F80919E018F3F19F08F5F809366
:1006F0009E0180919E01823031F48FEF2F3F3807A9
:1007000011F02F5F3F4F3093AE012093AD01A7E46E
:10071000B1E0C4E7D1E040E08C918823F1F4139676
:100720005C911397E42FE695E695F0E0EB56FE4FCB
:10073000208530E0852F90E00196821793076CF4B6
:100740005F3F59F011968D919C91129792FF02C0D4
:10075000986F01C09370998388834F5F1496229697
:100760004830D1F6DF91CF9108950F931F93CF9327
:10077000DF93EC014C818D81582F5F7073E0062F61
:1007800010E0A72FB0E0842F877090E0382F222749
:10079000FE01EA0FFB1F8081280F311D32FD386FEB
:1007A000A00FB11FAA0FBB1FAC58BE4F2D933C9397
:1007B000772339F063E0569547956A95E1F77150D4
:1007C000E0CFDF91CF911F910F9108958091440167
:1007D0009091450101978E5F9F4F60F48091460193
:1007E000853040F090E08D3508F091E081E0982769
:1007F000892F089580E090E0089589B182958695CB
:1008000087708095817008958091930190919401F3
:1008100020910501821B8B300CF44BC08091930119
:1008200090919401382F8093050120910401822F2B
:1008300090E08F709070892BE9F48091A201882359
:1008400051F1482F50E0205F2F77822F82958F70D3
:10085000BA0102C0759567958A95E2F760FFF3CFFC
:10086000822F8695869586952160822B8093040140
:100870005C9A11C0822F81508093040190E080FF28
:1008800002C05C9A01C05C988F709070892B19F43B
:10089000325E309305018091040190E08F7090707A
:1008A000892B39F48091A201882319F481E0809387
:1008B000960180919601882339F08091A2018823C6
:1008C00019F0109296015C9808958093B30082E02D
:1008D00087BB0895809197019091B200981B9093E7
:1008E000B200909197018091B001891714F4909310
:1008F000B0018091AF01981714F49093AF017DDFA0
:10090000882331F08FE78093AF0180E88093B001B6
:10091000109297010895CF93DF93209185019091D4
:100920008401A7E8B1E0C7E4D1E030E08C918F5FAB
:100930008C938A31D0F088818823B9F4E32FF0E0DA
:10094000E830F10590F4EE5DFF4F099491600DC021
:1009500092600BC0946009C0986007C0906105C0A8
:10096000906203C0216001C022603F5F119624960F
:100970003830E1F62093850190938401DF91CF9187
:10098000089585E069E0E0D484E060E1DDD486E0AC
:1009900063E0DAD48BE16BEFD7D48091A20182605F
:1009A0008093A20180E480934601089580919A018A
:1009B00017DE80919B018F5F80939B01873010F041
:1009C00010929B01E0919B01F0E0EC5AFF4FE49103
:1009D000E0939C018CE06E2FB7D40895882309F131
:1009E000662329F087FD8FEF18160CF481E0682F3D
:1009F000772767FD709580919C01992787FD9095D9
:100A0000680F791F8FEF6038780714F460E87FEF84
:100A10006038710514F06FE770E060939C018CE022
:100A200093D4089584E398D4881F8827881F089555
:100A3000289A84E3B5D40895CF93DF9380919901E8
:100A400090E0EC012396C43CD10518F0EC01C15CA8
:100A5000D0408AE06C2F78D4EBDFC0939901DF910E
:100A6000CF910895E8988BE39BD42091C7018091A2
:100A7000C601281769F1822F90E0FC01EE0FFF1FDD
:100A8000E80FF91FEE0FFF1FDF01AC5EBE4F15969A
:100A90008C91159780930B0114968C9114978093E9
:100AA0000A0113968C91139780930901EA5EFE4F19
:100AB00080818093080111968C9111978093070192
:100AC0008C91809306012F5F27702093C7012CC063
:100AD00080910B018F70806180930B018091A40144
:100AE00080930A012091A5013091A6014091A701B0
:100AF0005091A801CA01AA27BB270097A105B105FB
:100B000039F08FEF9FEF909309018093080104C0A3
:100B100030930901209308018091AD019091AE01BD
:100B2000909307018093060180917001882311F052
:100B300083E306C086E091E066E043D4289885E32D
:100B40002FD40895A4E7B1E0E8E4F1E08D919D9100
:100B500091838083349681E0A438B807B9F787E49D
:100B600091E063E070E040E250E0E1D48091A201C6
:100B700081608093A20108951F938CE091E068E06A
:100B800037D4882309F4E8C08091130187FFE4C0BB
:100B90009091110197FF09C080919801873061F011
:100BA00081E080939F0187E005C0809198018730A4
:100BB00018F086E0809398011091110112951F7032
:100BC0001770153008F074C0412F50E020E030E07D
:100BD00080917101882311F421E030E0CA01827014
:100BE00090702817390709F053C040FD27C08CE0EA
:100BF00091E060E0BADD10929D0120918401909116
:100C0000870180916801891708F42160909188011B
:100C100080916901891708F422609091890180917F
:100C20006A01891708F4246090918A0180916B0110
:100C3000891708F42860209384012AC08CE091E091
:100C400064E093DD10929E012091840190918B01CC
:100C500080916C01891708F4206190918C0180913A
:100C60006D01891708F42062209384012091850189
:100C700090918D0180916E01891708F42160909107
:100C80008E0180916F01891708F4226020938501FD
:100C9000143009F03DC02091860130E08091670159
:100CA00090E00296821793079CF580E0FFDA30C04F
:100CB000153029F5892F8C7059F520910E0130914E
:100CC0000F012330310520F180911001813001F5B1
:100CD00090FF1EC091FF07C060910C0170910D0143
:100CE000C9013CD404C0C90160910D0129D484E438
:100CF00091E060E070E04EE250E009D409C01730A6
:100D000039F480910F0190911001019709F41ADFD5
:100D1000809113018F7790E005971CF480919A01E0
:100D20005FDC8091A9019091AA01A091AB01B091E3
:100D3000AC010196A11DB11D8093A9019093AA0158
:100D4000A093AB01B093AC011092A30180919601E6
:100D500081115C9A81E001C080E01F910895DF93CA
:100D6000CF9300D000D00F92CDB7DEB7CE01019661
:100D700065E03ED3882381F18D8187FF2DC0898175
:100D80009A8190934501809344018B818093460121
:100D9000E8E6F1E09FE080818F3F09F4908331968F
:100DA00081E0E037F807B9F7809167018F3F51F490
:100DB0008AE080936701CF018C9760E070E04EE29B
:100DC00050E006C0CF018C9760E070E043E050E057
:100DD000AED310929501FFCF80E00F900F900F904F
:100DE0000F900F90CF91DF9108951F93182F80914E
:100DF0009501882351F0153029F4B1DF10C08FE33D
:100E00009ED211501123D9F709C0183029F4B4DE4D
:100E100006C08FE394D211501123D9F780E01F91BF
:100E20000895282F4A9B05C08091A2018064809379
:100E3000A20180919901682F70E08091460190E0B5
:100E4000880F991F019603C0680F791F2150222334
:100E5000D9F702C0645C7040643C7105D8F76093B8
:100E600099018AE08AD2E4DD08950F931F93CF930E
:100E7000DF9310910301123009F451C0133030F4A4
:100E8000112371F0113009F040C126C0143009F46B
:100E900020C1143008F497C0153009F036C11EC1C6
:100EA000ACDC882319F492DC882329F46ADD81E024
:100EB0008093950105C086E066E046D210929501C8
:100EC00061D2BADD109202011092010181E080939B
:100ED000A30180930301FAC0809101019091020166
:100EE0008536910560F49EDD882349F44A9907C050
:100EF00038D2803121F48091C801882349F01092C2
:100F000002011092010182E08093030185E8DFC0B5
:100F10002CD292DD80910101909102014EC04A993C
:100F200037C08DEB1DDB982F8077803199F1809150
:100F3000C801882349F1192F1F7019F12AD282E3C1
:100F40000BD260E04BDD81E06CDF812F4EDF882328
:100F500009F4D9C0BFDC80919801873010F48FE488
:100F600001C08CEAB2DC1092980110929F0183E0DC
:100F700080930301109202011092010182E087BB6D
:100F8000C2C082E04EDFBFC0F0D18AE309D250DD9B
:100F900017BBBBC08091010190910201843C910577
:100FA00060F0E3D103DD48DD1092020110920101EF
:100FB00081E08093030182E46CC00196909302016A
:100FC0008093010167C08091A301853100F1809178
:100FD000C8018823E1F4C9D187E080939B01E6DC56
:100FE00083E01FDF109202011092010181E08093E3
:100FF000A30182E08093030185E867DC8091A4016E
:101000008F3F09F482C08F5F8093A4017EC08091DE
:10101000C801882309F445C01092C80182EFA0DA04
:10102000182F8DE39DDA082FC12FD0E0C077D07044
:10103000C031D10509F469C0209709F096D11F701D
:1010400061F1CD2B51F58091A301843018F0802FF0
:1010500060E002C0802F61E0C1DC809198018730A0
:1010600010F481E0DEDE812FC0DE882309F44DC05C
:1010700031DC80919801873040F084D184E0809306
:1010800003011092980181E104C08F5F8093980161
:101090008FE41BDC82E087BB38C08AE381D1C8DCE7
:1010A00034C082E087BB61D1A8DA80919801873093
:1010B00040F081E50ADC66D1D5DC85E08093030150
:1010C00024C08F5F8093980181E0ABDE82E4FDDB7A
:1010D0001CC08AE4FADBC6DC85E013C010929801DC
:1010E0008FE4F3DB56D180919F01882321F0A0DCAF
:1010F00010929F0102C081E094DE81E08CBBE89AEF
:1011000083E0809303011092C801DF91CF911F917A
:101110000F910895F89410926100109264008091EC
:10112000C901482F50E0BA0161707070EAECF1E03B
:1011300020E030E0A2E0B0E06115710511F010820E
:101140000EC0CD01022E02C0880F991F0A94E2F74B
:1011500084239523892B19F080818F5F80832F5FF3
:101160003F4F31962330310539F795E095B98DE23F
:1011700084B987ED85B98FE387B980EC88B983EDB1
:101180008AB98CEA8BB95C9A14BC95BD82EC87BD98
:1011900010926E00109280001092810088ED9EE403
:1011A00090938B0080938A0032E03093B00086E009
:1011B0008093B10082E48093B3001092B200109249
:1011C00070002DE088E190E00FB6F894A895809328
:1011D00060000FBE20936000309369001DBA87E164
:1011E0008093B10184E491E060E070E04EE250E071
:1011F0008ED18FEF5AD11AD1882329F48091A20180
:1012000080688093A20185E0609144019DD0609147
:10121000440170914501672F772784E095D083B70B
:10122000817F83BF29E088E190E00FB6F894A8950C
:10123000809360000FBE209360005C988FEF8093D6
:10124000910181E08CBBE89A82E087BB1092C801D3
:101250007894F5D980E02AD814E002E0BCD97894DB
:10126000B99903C08091C8018111FFDDAA9B2FC0ED
:1012700015BB88B5885F88BD809100018F5F809322
:101280000001853118F01092000115DA44DB8091DD
:1012900086018F5F809386018A3110F080E006D846
:1012A0009091860180916701981711F481E0FED733
:1012B000B29B0DC08091A1018F3F49F08F5F809359
:1012C000A10116BB8091B1018F5F8093B101A99BF1
:1012D00034C087B58D5387BD05BB80919301909134
:1012E00094010196909394018093930180919301CE
:1012F00090919401892B29F48091A2018E7F809393
:10130000A20182DA7ADA8823C1F01092A501109244
:10131000A6011092A7011092A8011092AE0110929E
:10132000AD011092A4011092A1011092A901109296
:10133000AA011092AB011092AC01A8958FCF8068E2
:101340000FD98DE30DD908951F93162F8F7708D9E4
:10135000812F06D91F910895806C02D98DE300D9A1
:1013600008958DE3FDD88077089586E3F9D88077D6
:10137000882311F0F6DFFCCF0895E6DF807709F0CF
:10138000F4DF089583E2DBDF682F606283E2F5DF3C
:10139000089583E2D4DF682F6F7D83E2EEDF089546
:1013A000DFD808950F931F93082F8EE7D9D810E048
:1013B000802FD6D81F5F1830D9F70DD91F910F9104
:1013C00008950F931F93CF93DF93EC01162F8FE7B0
:1013D000C7D800E004C08991C3D8082F1150112349
:1013E000D1F7F9D8802FDF91CF911F910F910895F8
:1013F0001F93CF93DF93EC01162F8FEFB1D8212FDE
:1014000030E090E08F7090702817390739F0E3D8FA
:1014100080E008C08DE3A4D8899311501123D1F73F
:10142000DAD881E0DF91CF911F9108951F93CF9378
:10143000DF9388EE93E028EC30E0F9013197F1F783
:101440000197D9F780EC8CD8CBE5D0E011E080E0B3
:1014500087D8FE012196E4918E1310E080E0C53814
:10146000D807A8F3B8D88CEE7BD880E079D8FE01F5
:101470002196E4918E1310E080E0C838D807A8F3D5
:10148000AAD8812FDF91CF911F910895A4D880E52C
:101490008CBD089580E384DF01C000001C9BFDCF5C
:1014A00001C000001C99FDCF08950F931F93CF93A7
:1014B000DF93082F2D9A2B982A981AE6812F8A9568
:1014C000F1F7E4DF1A95F1F7E5DF85D880E448D835
:1014D000CBE5D0E0FE012196E4918E2F41D880E04B
:1014E000C538D807B8F377D88CE63AD8FE012196EC
:1014F000E4918E2F35D880E0C838D807B8F36BD880
:10150000802F50DFDF91CF911F910F910895DC0163
:10151000CB01FC01F999FECF06C0F2BDE1BDF89AFE
:10152000319600B40D9241505040B8F70895DC0157
:10153000CB0102C02D9105D041505040D8F70895FD
:10154000262FF999FECF1FBA92BD81BD20BD0FB6DF
:10155000F894FA9AF99A0FBE01960895F1DF272FB1
:06156000F0CFF894FFCF6C
:00000001FF
