:100B000019C033C032C031C030C02FC02EC02DC07C
:100B10002CC02BC02AC029C028C027C026C025C091
:100B200024C023C022C021C020C01FC01EC01DC0C1
:100B30001CC01BC011241FBECFEFD2E0DEBFCDBF53
:100B400011E0A0E0B1E0E4EFFFE002C005900D92FB
:100B5000A030B107D9F711E0A0E0B1E001C01D92CB
:100B6000A238B107E1F7CDD043C2CACF582FFB015D
:100B700021E030E0309381012093800111C0809109
:100B80008001909181010196909381018093800171
:100B90008091800190918101892B11F440E008C07F
:100BA0008091C00087FFEBCF4091C600413069F0D3
:100BB0008091800190918101892B09F4A0C044307B
:100BC00009F49DC04831B1F69AC081E090E090935D
:100BD00081018093800111C08091800190918101F9
:100BE0000196909381018093800180918001909182
:100BF0008101892B11F430E006C08091C00087FF8D
:100C0000EBCF3091C60081E090E09093810180931A
:100C1000800111C080918001909181010196909393
:100C20008101809380018091800190918101892BC5
:100C300011F420E006C08091C00087FFEBCF209127
:100C4000C600832F90E0820F911D8F3F910509F41C
:100C500035134FEF50E030E061E070E070938101B8
:100C60006093800111C08091800190918101019673
:100C70009093810180938001809180019091810106
:100C8000892B11F420E006C08091C00087FFEBCFD4
:100C90002091C60020838091800190918101892B51
:100CA00011F440E02CC0520F31963F5F3038B1F65E
:100CB00081E090E0909381018093800111C0809148
:100CC0008001909181010196909381018093800130
:100CD0008091800190918101892B11F480E006C000
:100CE0008091C00087FFEBCF8091C600581731F488
:100CF0008091800190918101892B09F44FEF842F1D
:100D00000895A4E0B0E0E6E8F6E03BC11124F894D1
:100D10001092610015B88EE284B981E088B983E051
:100D200087B91BB880E28AB91092C50089E1809327
:100D3000C4001092C00088E18093C10086E08093D7
:100D4000C20015E181E060E071E010DF982F815072
:100D50008E3F38F08091C00085FFFCCF1093C60015
:100D6000F1CFDD2411E0212E312CEE24FF24870168
:100D7000913009F09CC0B0E8AB2EB12CC12CD12C25
:100D8000AE0CBF1CC01ED11E20E0A2162BE0B20686
:100D900020E0C20620E0D20608F0EEC007B600FC54
:100DA000FDCFB701A3E08A2EF70180925700E895A6
:100DB00007B600FCFDCF20E031E03A832983F0E460
:100DC0006F2E712C812C912C6E0C7F1C801E911E1D
:100DD00022C0A981BA811196BC91BC831B82E98192
:100DE000FA8180812B813C81280F311DC90121E0CE
:100DF000F7010C0120935700E895112489819A810D
:100E000002969A83898382E090E0A0E0B0E0E80E49
:100E1000F91E0A1F1B1FA4019301E614F70408051D
:100E20001905B8F2C301E5E08E2EFB018092570050
:100E3000E89507B600FCFDCF07B600FCFDCF8C019E
:100E400063E0862EFC0180925700E89507B600FC0F
:100E5000FDCFA0E4B1E015C011965C901197442439
:100E60008C91B201680F711D88248394F9010B01E4
:100E700080925700E895112412962E5F3F4F4F4FF6
:100E80005F4F2A153B054C055D0530F335E0832E99
:100E9000F80180925700E89507B600FCFDCF089452
:100EA000211C311C8601750196E0DD2459C0943067
:100EB00019F0983109F047C007B600FCFDCFD70103
:100EC00083E0F70180935700E89507B600FCFDCF5B
:100ED00020E0622E21E0722EB801A701405C5F4F36
:100EE0006F4F7F4FDD24D3941BC0F301318120E08D
:100EF00080814901880E911CF7010401D0925700AE
:100F0000E895112492E0892E912C680C791C82E0DE
:100F1000882E912CA12CB12CE80CF91C0A1D1B1D4C
:100F2000E416F5060607170700F385E0FD01809338
:100F30005700E89507B600FCFDCF8091C00085FF03
:100F4000FCCF86E008C0FAE0FD1540F48091C000B7
:100F500085FFFCCF88E18093C6000EC0D39495E155
:100F60008091C00085FFFCCF9093C600822D60E089
:100F700071E0FCDD982FFCCE80E090E02496E2E169
:100F80001CC02F923F924F925F926F927F928F92EE
:100F90009F92AF92BF92CF92DF92EF92FF920F9308
:100FA0001F93CF93DF93CDB7DEB7CA1BDB0B0FB612
:100FB000F894DEBF0FBECDBF09942A8839884888CF
:100FC0005F846E847D848C849B84AA84B984C88465
:100FD000DF80EE80FD800C811B81AA81B981CE0F5C
:100FE000D11D0FB6F894DEBF0FBECDBFED01089541
:040FF000F894FFCFA3
:0400000300000B00EE
:00000001FF
