:1000000030C04FC456C055C054C053C052C02CC598
:1000100050C04FC04FC04DC04CC04BC04AC049C07B
:1000200048C047C067C545C044C043C042C041C086
:1000300040C03FC0292E0607D391030C4400000A9C
:10004000005C6C4E2D3B73F3FF000700181D1CC7AE
:1000500000B0876BF8B610EA0A00114100598831E8
:100060000B0011241FBECFEFD2E0DEBFCDBFA8959D
:1000700084B78093610114BE88E10FB6F894809331
:100080006000109260000FBE11E0A0E0B1E0ECEF64
:10009000FEE002C005900D92A030B107D9F711E043
:1000A000A0E0B1E001C01D92A136B107E1F734D262
:1000B00023C7A6CF78941F920F920FB60F921124E8
:1000C0002F934F935F936F937F938F939F93EF93B0
:1000D000FF93209114014091860050918700B19BBD
:1000E00004C02093460120E01FC02031E8F4E22F35
:1000F000F0E08091150190911601BA01681B790B0F
:10010000CB0173E0969587957A95E1F78C5D9540E4
:10011000EE0FFF1FE25EFE4F91838083233019F4C0
:1001200084E080933E012F5FF89480918400909149
:1001300085008054924A9093890080938800789437
:1001400082E086BB50931601409315012093140161
:10015000FF91EF919F918F917F916F915F914F915F
:100160002F910F900FBE0F901F901895982F2A9BDC
:1001700027C02A98000080E009C08F5F8F3F31F4CC
:100180008091480188608093480102C01A99F5CF98
:10019000000080E009C08F5F8F3F31F480914801FB
:1001A0008860809348010CC01C99F5CF09C08F5F0F
:1001B0008F3F39F48091480188608093480103C0E3
:1001C00080E04B99F4CF0DB407FC8EB59EBD0DB405
:1001D00006FCFCCF01C000000DB407FEFCCF8EB5BD
:1001E00008952A9A00001A9BFDCF089586B186953E
:1001F000869580958170089580915E0190915F0150
:1002000020910F01821B8830ECF180915E0190916A
:100210005F01382F80930F0120910E01822F90E013
:100220008F709070892BE9F480914801882351F1F7
:10023000482F50E0205F2F77822F82958F70BA0170
:1002400002C0759567958A95E2F760FFF3CF822F1C
:100250008695869586952160822B80930E01409A23
:100260000895822F815080930E0190E080FF02C09C
:10027000409A01C040988F709070892B19F43B5EB2
:1002800030930F0108952091170130911801C90191
:1002900001978E5F9F4FC0F4832F9927307082178C
:1002A000930791F08A3A910579F08535910561F0CF
:1002B00080911901853040F090E08D3508F091E093
:1002C00081E09827892F089580E090E00895FC014F
:1002D00020E030E005C08191280F311D6150704051
:1002E00061157105C1F7C9010895809149018823FD
:1002F00029F08091490181508093490108958091AE
:10030000C00085FFFCCF0895CF93DF9380915D01FE
:1003100087FF11C0F4DF84E58093C600C6E5D1E015
:10032000EEDF89918093C60081E0CC35D807C1F714
:1003300089818F778983DF91CF91089557DF882353
:1003400039F081E08093420180914801816003C0CF
:10035000809148018E7F8093480108959093C50055
:100360008093C4001092C00086E08093C20088E9A8
:100370008093C100589A089580914501682F70E0DC
:1003800080914101882319F06F577F4F0CC06F5F38
:100390007F4F8091190190E0880F991F680F791F96
:1003A00002C0645C7040643C7105D8F760934501FD
:1003B0008AE0A0D408955D9885E3D8DE8077803107
:1003C00041F078948091480180628093480180E0F8
:1003D000089580911B01882319F473D4803139F07A
:1003E000299A789481E08CBBE89A419A0895789490
:1003F00080914B0190914C01A0914D01B0914E0123
:100400000196A11DB11D80934B0190934C01A093C7
:100410004D01B0934E0180914901853028F48091BF
:1004200049018F5F8093490180914901853018F01F
:1004300087E160E05FD4419880E008951F93182F12
:10044000883051F486E591E068E09FD4882321F05C
:1004500029C08FE329D411501123D9F780913F018E
:10046000909140012FEF8F3F920729F001969093D2
:10047000400180933F0110925B0180915E01909159
:100480005F01909357018093560180913F019091B5
:100490004001909359018093580180915D018068DB
:1004A00080935D011F910895F89456B58091840062
:1004B000909185004091B200209117013091180170
:1004C000820F931F875F9F4E850F911D840F911D93
:1004D0009093180180931701789420911901280FA7
:1004E0002F7320931901CFDE8823F1F287E191E089
:1004F00065E070E0ECDE90931D0180931C0187E1C4
:1005000091E060E070E047E050E0DDD48091480188
:100510008460809348010895F894109261001092CD
:10052000640084E085B98EE284B985ED85B983E005
:1005300087B98CEF88B980E28AB98FED8BB9409A80
:1005400085E085BD16BC8FEF85BB10926E002DE057
:1005500088E190E00FB6F894A895809360000FBEF4
:100560002093600082E0809369001DBA87E191E0EA
:1005700060E070E047E050E097D485DE882361F0CA
:1005800000911C0110911D0187E191E065E070E090
:100590009EDE0817190709F087DF80911A0152D4EF
:1005A00012D4882329F480914801806880934801FF
:1005B00085E0609117017DD360911701709118015A
:1005C000672F772784E075D380911B01882319F06A
:1005D00087E160E002C087E160E16BD383B7817F90
:1005E00083BF81E090E0BADE29E088E190E00FB6B9
:1005F000F894A895809360000FBE2093600010923D
:10060000800081E880938100109285001092840020
:100610002FEF26BB80E280936F0092E09093B000B2
:1006200086E08093B10082E48093B3001092B20020
:1006300027BB909370004098419A789401E0A89B62
:100640000CC080915E0190915F01019690935F01D3
:1006500080935E0105BBD0DD71DE56DE80916001C6
:10066000882319F0A8951092600183B7816083BF39
:10067000889583B78E7F83BFE2CF29985D9AE898EB
:100680004A9B05C08091480180648093480174DED4
:1006900080911B01882339F480914901882319F442
:1006A00087E160E106D38BE348D384E346D3089522
:1006B00029985D9AE8984A9B05C08091480180641A
:1006C000809348018BE339D384E337D30895809135
:1006D0004701882319F423D3EBDF0895CEDF089573
:1006E00080914801806180934801F1DF0895CF93A4
:1006F000DF93262F220F220F2C708795882787954E
:10070000909107019F7067706295607F982B962B80
:100710009093070160E070E0A0E0B0E0C22FD0E06D
:10072000FD01EC0FFD1FEE0FFF1FE25EFE4F40814B
:100730005181808191814817590791F7FD01EE5F42
:10074000FE4F40839B0193E0220F331F9A95E1F700
:10075000852F99278770682F70E0622B732B119675
:10076000A430B105E9F660930601972F9F70809140
:100770000701807F892B8093070182E091E066E08A
:10078000EDD290E080779070809714F4A9DF01C0DB
:10079000ACDDDF91CF910895DF93CF9300D0CDB73B
:1007A000DEB79A838983CE01019666E0D7D290E0C6
:1007B00080779070809714F493DF01C096DD0F90DE
:1007C0000F90CF91DF91089590910D019067282FA0
:1007D0002795222727959F77922B90930D01809143
:1007E0004201882361F081E090E090930C018093B6
:1007F0000B0188E091E0D0DF1092420108958091D2
:100800004401882361F0809154018F77822B80937B
:1008100054018FE491E0C0DF1092440108951092DA
:100820000C0110920B0188E091E0B6DF08951F9350
:10083000982F10913E01143021F464E058DF13E04A
:100840002CC0112369F064E0611B51DF133031F4D7
:1008500080914601893010F410E01FC011501DC076
:1008600080914201882321F480914401882319F06A
:10087000892FAADF12C0892F6091010138DF909182
:1008800001019F5F9093010180914601893010F42E
:10089000917001C093709093010110933E011F91DC
:1008A000089578941F920F920FB60F9211242F93F0
:1008B0003F934F935F936F937F938F939F93AF93E8
:1008C000BF93EF93FF93E898809170008D7F8093A2
:1008D000700080915501882331F080914801806239
:1008E000809348010EC0F3DEB99B05C0809148019A
:1008F000806280934801F8948091700082608093B8
:100900007000FF91EF91BF91AF919F918F917F9177
:100910006F915F914F913F912F910F900FBE0F906C
:100920001F90189585E069E0C4D184E060E1C1D1F1
:1009300086E063E0BED181E0809341018FE7FFD183
:1009400008951F9380910001823009F44DC08330D7
:1009500030F4882359F0813009F084C018C0833006
:1009600009F44FC0843009F07DC069C078943EDC42
:10097000882311F083E060C08CE58093B30086E0AB
:1009800066E0B8D1CCD1C3D178DE82E055C013DDAA
:10099000982F80914701873080F01092470199236A
:1009A00019F081E044DF01C092DE8DE88093B3004E
:1009B00082E08093000183E414C0809147018F5F3F
:1009C00080934701992319F080E031DF01C07FDE79
:1009D00082E48093B30080914401882309F040C0F1
:1009E00081E58093C6003CC0789481E18093B30098
:1009F0006CD1182F9BD183D140DE812F1FDD81E088
:100A00001BC07894F3DB882359F580915E019091A7
:100A10005F018839910508F047DD84DF80D12DDE44
:100A200081E0809347018091480182608093480172
:100A300085E88093B30084E08093000111C0BBDCA3
:100A4000882369F087E191E063E088D190E08077C6
:100A50009070809714F444DE03C047DC01C037DE99
:100A6000109255011F9108951F920F920FB60F9289
:100A700011241F932F933F934F935F936F937F9313
:100A80008F939F93AF93BF93EF93FF9311E01093D6
:100A9000550157DFA6DB10936001FF91EF91BF91E5
:100AA000AF919F918F917F916F915F914F913F9106
:100AB0002F911F910F900FBE0F901F90189590913E
:100AC0005401892F8C70A9F490FF13C091FF0AC0C4
:100AD00060914F01709150018091510190915201AC
:100AE00008D2089580915101909152016091500176
:100AF000F2D108951F920F920FB60F9211242F93E7
:100B00003F934F935F936F937F938F939F93AF9395
:100B1000BF93EF93FF938091C1008F778093C100C3
:100B200078943091C60086B5865F87BDA99B04C0C6
:100B30001092100182E085BB80911001833009F48E
:100B400047C0843030F4813039F1823008F03CC045
:100B50000AC0853009F467C0853008F453C0863078
:100B600009F08BC081C0333411F481E01FC03435EB
:100B700011F484E01BC0363409F07FC037DB8823D2
:100B800009F47BC088E10FB6F8948093600010925E
:100B900060000FBE11D271C081E48093C600832F24
:100BA000887F39F082E08093110186E08093100104
:100BB00064C080911301381718F48F5F8093460149
:100BC0003093130182E0F2CF3093120183E0EECF35
:100BD00081E48093C60020911301E22FF0E0809120
:100BE000120190E0982F8827830F911DEE0FFF1FB1
:100BF000E25EFE4F918380832330E9F584E08093A9
:100C00003E0139C080914401882311F084E0CBCFAC
:100C10003F77809154018078832B80935401109208
:100C2000110185E0C3CF90911101E92FF0E090FD13
:100C300003C081E48093C600E15BFE4F3083892FBF
:100C40008F5F809311018530C0F0809154018077CF
:100C5000803531F480915301882311F430DF0BC0CB
:100C600081E08093440107C08091110181508093FD
:100C70001101882311F410921001F8948091C100A1
:100C800080688093C100FF91EF91BF91AF919F91D8
:100C90008F917F916F915F914F913F912F910F9025
:100CA0000FBE0F901F901895806860DA8DE35EDAB2
:100CB00008951F93162F8F7759DA812F57DA1F91D6
:100CC00008958DE353DA807708951F9386EB4EDA0B
:100CD000182F8077882311F0F4DFFCCF812F8F70DD
:100CE0001F91089586E342DA8077882311F0E9DFC7
:100CF000FCCF0895DEDF807709F0F4DF0895EBE4A0
:100D0000F0E0E491EC6087E16E2FF4DF0895EBE40E
:100D1000F0E0E491E37F87E16E2FECDF089583E25A
:100D2000C3DF682F606283E2E5DF089583E2BCDF02
:100D3000682F6F7D83E2DEDF089518DA08950F9340
:100D40001F93082F8EE712DA10E0802F0FDA1F5F53
:100D50001830D9F746DA1F910F9108950F931F931A
:100D6000CF93DF93EC01162F8FE700DA00E004C089
:100D70008991FCD9082F11501123D1F732DA802F35
:100D8000DF91CF911F910F9108951F93CF93DF9320
:100D9000EC01162F8FEFEAD9212F30E090E08F7011
:100DA00090702817390739F01CDA80E008C08DE30D
:100DB000DDD9899311501123D1F713DA81E0DF9146
:100DC000CF911F9108951F93CF93DF9388EE93E007
:100DD00028EC30E0F9013197F1F70197D9F780EC71
:100DE000C5D9C4E3D0E011E080E0C0D9FE0121966E
:100DF000E4918E1310E080E0CE35D807A8F3F1D946
:100E00008CEEB4D980E0B2D9FE012196E4918E1324
:100E100010E080E0C136D807A8F3E3D9812FDF9135
:100E2000CF911F910895DDD980E58CBD089580E3B1
:100E300084DF01C000001C9BFDCF01C000001C9995
:100E4000FDCF08950F931F93CF93DF93082F2D9A13
:100E50002B982A981AE6812F8A95F1F7E4DF1A95E4
:100E6000F1F7E5DFBED980E481D9C4E3D0E0FE012B
:100E70002196E4918E2F7AD980E0CE35D807B8F349
:100E8000B0D98CE673D9FE012196E4918E2F6ED9EC
:100E900080E0C136D807B8F3A4D9802F50DFDF91A6
:100EA000CF911F910F910895DC01862FE82FF999BA
:100EB000FECF12BC05C0E1BDF89AE39500B40D92D7
:100EC0004150C8F70895DC01862F02C02D9104D04F
:100ED0004150E0F70895262FF999FECF1FBA12BCB2
:100EE00081BD20BD0FB6F894FA9AF99A0FBE01960B
:0C0EF0000895F1DF272FF0CFF894FFCF1A
:100FB800F0E0E0E018D0012C16D041E00ED03296D7
:100FC8008E2F8F73B9F7319743E007D045E005D0EE
:100FD80031968F2F8F5071F70FC807B700FDFDCFDF
:100FE80047BFE89508951090C00017FEFCCF1090F9
:080FF800C600E093C600089555
:00000001FF
