:1000000030C04CC456C055C054C053C052C029C59E
:1000100050C04FC04FC04DC04CC04BC04AC049C07B
:1000200048C047C064C545C044C043C042C041C089
:1000300040C03FC0292E0607D391030C4400000A9C
:10004000005C6C4E2D3B73F3FF000700181D1CC7AE
:1000500000B0876BF8B610EA0A00114100598831E8
:100060000B0011241FBECFEFD2E0DEBFCDBFA8959D
:1000700084B78093550114BE88E10FB6F89480933D
:100080006000109260000FBE11E0A0E0B1E0E4E675
:10009000FFE002C005900D92A030B107D9F711E042
:1000A000A0E0B1E001C01D92A535B107E1F734D25F
:1000B00057C7A6CF78941F920F920FB60F921124B4
:1000C0002F934F935F936F937F938F939F93EF93B0
:1000D000FF93209108014091860050918700B19BC9
:1000E00004C020933A0120E01FC02031E8F4E22F41
:1000F000F0E08091090190910A01BA01681B790B27
:10010000CB0173E0969587957A95E1F78C5D9540E4
:10011000EE0FFF1FEE5EFE4F91838083233019F4B4
:1001200084E0809332012F5FF89480918400909155
:1001300085008054924A9093890080938800789437
:1001400082E086BB50930A01409309012093080185
:10015000FF91EF919F918F917F916F915F914F915F
:100160002F910F900FBE0F901F901895982F2A9BDC
:1001700027C02A98000080E009C08F5F8F3F31F4CC
:1001800080913C01886080933C0102C01A99F5CFB0
:10019000000080E009C08F5F8F3F31F480913C0107
:1001A000886080933C010CC01C99F5CF09C08F5F1B
:1001B0008F3F39F480913C01886080933C0103C0FB
:1001C00080E04B99F4CF0DB407FC8EB59EBD0DB405
:1001D00006FCFCCF01C000000DB407FEFCCF8EB5BD
:1001E00008952A9A00001A9BFDCF089586B186953E
:1001F0008695809581700895809152019091530168
:1002000020910301821B8830ECF180915201909182
:100210005301382F8093030120910201822F90E037
:100220008F709070892BE9F480913C01882351F103
:10023000482F50E0205F2F77822F82958F70BA0170
:1002400002C0759567958A95E2F760FFF3CF822F1C
:100250008695869586952160822B80930201409A2F
:100260000895822F81508093020190E080FF02C0A8
:10027000409A01C040988F709070892B19F43B5EB2
:1002800030930301089520910B0130910C01C901B5
:1002900001978E5F9F4FC0F4832F9927307082178C
:1002A000930791F08A3A910579F08535910561F0CF
:1002B00080910D01853040F090E08D3508F091E09F
:1002C00081E09827892F089580E090E00895FC014F
:1002D00020E030E005C08191280F311D6150704051
:1002E00061157105C1F7C901089580913D01882309
:1002F00029F080913D01815080933D0108958091C6
:10030000C00085FFFCCF0895CF93DF93809151010A
:1003100087FF11C0F4DF84E58093C600CAE4D1E012
:10032000EEDF89918093C60081E0C035D807C1F720
:1003300089818F778983DF91CF91089557DF882353
:1003400039F081E08093360180913C01816003C0E7
:1003500080913C018E7F80933C0108959093C5006D
:100360008093C4001092C00086E08093C20088E9A8
:100370008093C100589A089580913901682F70E0E8
:1003800080913501882319F06F577F4F0CC06F5F44
:100390007F4F80910D0190E0880F991F680F791FA2
:1003A00002C0645C7040643C7105D8F76093390109
:1003B0008AE09DD408955D9885E3D8DE807780310A
:1003C00041F0789480913C01806280933C0180E010
:1003D000089580910F01882319F470D4803139F089
:1003E000299A7894E09AE89A419A81E0089578945D
:1003F00080913F0190914001A0914101B091420153
:100400000196A11DB11D80933F0190934001A093DF
:100410004101B093420180913D01853028F48091E3
:100420003D018F5F80933D0180913D01853018F043
:1004300087E160E05CD4419880E008951F93182F15
:10044000883051F48AE491E068E09CD4882321F05C
:1004500029C08FE326D411501123D9F7809133019D
:10046000909134012FEF8F3F920729F001969093DE
:1004700034018093330110924F0180915201909189
:10048000530190934B0180934A01809133019091E5
:10049000340190934D0180934C018091510180680B
:1004A000809351011F910895F89456B5809184006E
:1004B000909185004091B20020910B0130910C0188
:1004C000820F931F875F9F4E850F911D840F911D93
:1004D00090930C0180930B01789420910D01280FCB
:1004E0002F7320930D01CFDE8823F1F28BE091E092
:1004F00065E070E0ECDE90931101809310018BE0D9
:1005000091E060E070E047E050E011D580913C015F
:10051000846080933C010895F894109261001092D9
:10052000640084E085B98EE284B985ED85B983E005
:1005300087B98CEF88B980E28AB98FED8BB9409A80
:1005400085E085BD16BC8FEF85BB10926E002DE057
:1005500088E190E00FB6F894A895809360000FBEF4
:100560002093600082E0809369001DBA8BE091E0E7
:1005700060E070E047E050E0CBD485DE882361F096
:1005800000911001109111018BE091E065E070E0A5
:100590009EDE0817190709F087DF80910E014FD4FE
:1005A0000FD4882329F480913C01806880933C011A
:1005B00085E060910B017AD360910B0170910C0181
:1005C000672F772784E072D380910F01882319F079
:1005D00087E160E002C087E160E168D383B7817F93
:1005E00083BF81E090E0BADE29E088E190E00FB6B9
:1005F000F894A895809360000FBE2093600010923D
:10060000800081E880938100109285001092840020
:100610002FEF26BB80E280936F0092E09093B000B2
:1006200086E08093B10082E48093B3001092B20020
:1006300027BB909370004098419A789401E0A89B62
:100640000CC08091520190915301019690935301F7
:100650008093520105BBD0DD71DE56DE80915401DE
:10066000882319F0A8951092540183B7816083BF45
:10067000889583B78E7F83BFE2CF29985D9AE898EB
:100680004A9B05C080913C01806480933C0174DEEC
:1006900080910F01882339F480913D01882319F45A
:1006A00087E160E103D38BE345D384E343D308952B
:1006B00029985D9AE8984A9B05C080913C01806426
:1006C00080933C018BE336D384E334D30895809147
:1006D0003B01882319F420D3EBDF0895CEDF089582
:1006E00080913C01806180933C01F1DF0895A6E098
:1006F000B0E0ECE7F3E0DFC3082F162F862F880F5A
:10070000880F8C70A0E0B0E060E070E0E82EFF247D
:100710006E010894C11CD11CFB01EE0DFF1DEE0FF4
:10072000FF1FEE5EFE4F408151818081918148170D
:10073000590791F7F601E60FF71F40839D0183E00B
:10074000220F331F8A95E1F7852F99278770A82FED
:10075000B0E0A22BB32B6F5F7F4F64307105E1F6E1
:10076000AD838B2F8F7017701295107F0795002720
:100770000795182B102B1E83C60166E0ECD290E083
:1007800080779070809714F4ABDF01C0AEDD2696C1
:10079000E8E0ADC3A2E0B0E0EFECF3E092C39A83EF
:1007A0008983CE01019666E0D6D290E08077907082
:1007B000809714F495DF01C098DD2296E2E09DC396
:1007C000A6E0B0E0E5EEF3E07CC39E819067282FC1
:1007D0002795222727959F77922B9E83809136011C
:1007E000882351F081E090E09D838C83CE010196B7
:1007F000D1DF1092360115C080913801882361F055
:10080000809148018F77822B8093480183E491E0A7
:10081000C1DF1092380105C01D821C82CE010196F5
:10082000B9DF2696E2E069C31F93982F1091320139
:10083000143021F464E05BDF13E02CC0112369F075
:1008400064E0611B54DF133031F480913A01893048
:1008500010F410E01FC011501DC080913601882394
:1008600021F480913801882319F0892FA9DF12C063
:10087000892F609101013BDF909101019F5F90936F
:10088000010180913A01893010F4917001C0937098
:1008900090930101109332011F91089578941F9253
:1008A0000F920FB60F9211242F933F934F935F93A4
:1008B0006F937F938F939F93AF93BF93EF93FF9328
:1008C000E898809170008D7F80937000809149013D
:1008D000882331F080913C01806280933C010EC0FE
:1008E000F6DEB99B05C080913C01806280933C019B
:1008F000F89480917000826080937000FF91EF9176
:10090000BF91AF919F918F917F916F915F914F9127
:100910003F912F910F900FBE0F901F90189585E07B
:1009200069E0C4D184E060E1C1D186E063E0BED17A
:1009300081E0809335018FE7FFD108951F93809167
:100940000001823009F44DC0833030F4882359F01F
:10095000813009F084C018C0833009F44FC084305E
:1009600009F07DC069C0789441DC882311F083E0F0
:1009700060C08CE58093B30086E066E0B8D1CCD14E
:10098000C3D17BDE82E055C016DD982F80913B01FC
:10099000873080F010923B01992319F081E044DF09
:1009A00001C095DE8DE88093B30082E08093000162
:1009B00083E414C080913B018F5F80933B019923B6
:1009C00019F080E031DF01C082DE82E48093B30061
:1009D00080913801882309F040C081E58093C600EA
:1009E0003CC0789481E18093B3006CD1182F9BD1E7
:1009F00083D143DE812F22DD81E01BC07894F6DBBA
:100A0000882359F5809152019091530188399105BD
:100A100008F04ADD84DF80D130DE81E080933B0145
:100A200080913C01826080933C0185E88093B30013
:100A300084E08093000111C0BEDC882369F08BE064
:100A400091E063E088D190E080779070809714F413
:100A500047DE03C04ADC01C03ADE109249011F9113
:100A600008951F920F920FB60F9211241F932F9388
:100A70003F934F935F936F937F938F939F93AF9326
:100A8000BF93EF93FF9311E01093490157DFA9DB68
:100A900010935401FF91EF91BF91AF919F918F916E
:100AA0007F916F915F914F913F912F911F910F9087
:100AB0000FBE0F901F90189590914801892F8C7050
:100AC000A9F490FF13C091FF0AC060914301709197
:100AD000440180914501909146013FD20895809153
:100AE0004501909146016091440129D208951F92D9
:100AF0000F920FB60F9211242F933F934F935F9352
:100B00006F937F938F939F93AF93BF93EF93FF93D5
:100B10008091C1008F778093C10078943091C60096
:100B200086B5865F87BDA99B04C01092040182E050
:100B300085BB80910401833009F447C0843030F4D0
:100B4000813039F1823008F03CC00AC0853009F4A8
:100B500067C0853008F453C0863009F08BC081C06F
:100B6000333411F481E01FC0343511F484E01BC02C
:100B7000363409F07FC03ADB882309F47BC088E172
:100B80000FB6F89480936000109260000FBE14D2EC
:100B900071C081E48093C600832F887F39F082E0A2
:100BA0008093050186E08093040164C08091070171
:100BB000381718F48F5F80933A013093070182E071
:100BC000F2CF3093060183E0EECF81E48093C6003C
:100BD00020910701E22FF0E08091060190E0982F2C
:100BE0008827830F911DEE0FFF1FEE5EFE4F91834E
:100BF00080832330E9F584E08093320139C080910D
:100C00003801882311F084E0CBCF3F7780914801F1
:100C10008078832B809348011092050185E0C3CF33
:100C200090910501E92FF0E090FD03C081E48093ED
:100C3000C600ED5BFE4F3083892F8F5F80930501E7
:100C40008530C0F0809148018077803531F4809103
:100C50004701882311F430DF0BC081E08093380115
:100C600007C080910501815080930501882311F40C
:100C700010920401F8948091C10080688093C100B3
:100C8000FF91EF91BF91AF919F918F917F916F9164
:100C90005F914F913F912F910F900FBE0F901F903A
:100CA0001895806863DA8DE361DA08951F93162F33
:100CB0008F775CDA812F5ADA1F9108958DE356DA27
:100CC000807708951F9386EB51DA182F8077882359
:100CD00011F0F4DFFCCF812F8F701F91089586E310
:100CE00045DA8077882311F0E9DFFCCF0895DEDF55
:100CF000807709F0F4DF0895EBE4F0E0E491EC6034
:100D000087E16E2FF4DF0895EBE4F0E0E491E37FF8
:100D100087E16E2FECDF089583E2C3DF682F606206
:100D200083E2E5DF089583E2BCDF682F6F7D83E215
:100D3000DEDF08951BDA08950F931F93082F8EE7C7
:100D400015DA10E0802F12DA1F5F1830D9F749DA70
:100D50001F910F9108950F931F93CF93DF93EC0191
:100D6000162F8FE703DA00E004C08991FFD9082F1E
:100D700011501123D1F735DA802FDF91CF911F91D8
:100D80000F9108951F93CF93DF93EC01162F8FEFF0
:100D9000EDD9212F30E090E08F709070281739073F
:100DA00039F01FDA80E008C08DE3E0D98993115053
:100DB0001123D1F716DA81E0DF91CF911F910895C9
:100DC0001F93CF93DF9388EE93E028EC30E0F90196
:100DD0003197F1F70197D9F780ECC8D9C4E3D0E097
:100DE00011E080E0C3D9FE012196E4918E1310E05A
:100DF00080E0CE35D807A8F3F4D98CEEB7D980E0DF
:100E0000B5D9FE012196E4918E1310E080E0C13641
:100E1000D807A8F3E6D9812FDF91CF911F910895CC
:100E2000E0D980E58CBD089580E384DF01C0000037
:100E30001C9BFDCF01C000001C99FDCF08950F93AE
:100E40001F93CF93DF93082F2D9A2B982A981AE699
:100E5000812F8A95F1F7E4DF1A95F1F7E5DFC1D923
:100E600080E484D9C4E3D0E0FE012196E4918E2F82
:100E70007DD980E0CE35D807B8F3B3D98CE676D9E2
:100E8000FE012196E4918E2F71D980E0C136D807FA
:100E9000B8F3A7D9802F50DFDF91CF911F910F9129
:100EA00008952F923F924F925F926F927F928F920E
:100EB0009F92AF92BF92CF92DF92EF92FF920F93E9
:100EC0001F93CF93DF93CDB7DEB7CA1BDB0B0FB6F3
:100ED000F894DEBF0FBECDBF09942A8839884888B0
:100EE0005F846E847D848C849B84AA84B984C88446
:100EF000DF80EE80FD800C811B81AA81B981CE0F3D
:100F0000D11D0FB6F894DEBF0FBECDBFED01089521
:100F1000DC01862FE82FF999FECF12BC05C0E1BD98
:100F2000F89AE39500B40D924150C8F70895DC019A
:100F3000862F02C02D9104D04150E0F70895262F4E
:100F4000F999FECF1FBA12BC81BD20BD0FB6F8942F
:100F5000FA9AF99A0FBE01960895F1DF272FF0CF84
:040F6000F894FFCF33
:100FB800F0E0E0E018D0012C16D041E00ED03296D7
:100FC8008E2F8F73B9F7319743E007D045E005D0EE
:100FD80031968F2F8F5071F70FC807B700FDFDCFDF
:100FE80047BFE89508951090C00017FEFCCF1090F9
:080FF800C600E093C600089555
:00000001FF
